{
  "transactions": [
    {
      "hash": "0xef0bf3925a16856f55dcc74f5c2dfe29fdaa098f30cc44323ddce8b3c569ba76",
      "transactionType": "CALL",
      "contractName": null,
      "contractAddress": "0xa0b86991c6218b36c1d19d4a2e9eb0ce3606eb48",
      "function": "transfer(address,uint256)",
      "arguments": [
        "0xB26AaA980fEADD4E06E51ff435d1ac9617D9FAcc",
        "92310039"
      ],
      "transaction": {
        "from": "0xc49b5e5b9da66b9126c1a62e9761e6b2147de3e1",
        "to": "0xa0b86991c6218b36c1d19d4a2e9eb0ce3606eb48",
        "gas": "0x13606",
        "value": "0x0",
        "input": "0xa9059cbb000000000000000000000000b26aaa980feadd4e06e51ff435d1ac9617d9facc0000000000000000000000000000000000000000000000000000000005808a17",
        "nonce": "0x6d",
        "chainId": "0x1"
      },
      "additionalContracts": [],
      "isFixedGasLimit": false
    },
    {
      "hash": "0xc8df839fe7c759084117adf6a8dae8f2dd7236f43d78f43a09768b38f77c81dc",
      "transactionType": "CALL",
      "contractName": null,
      "contractAddress": "0xb26aaa980feadd4e06e51ff435d1ac9617d9facc",
      "function": "invest(address,uint256,bytes)",
      "arguments": [
        "0x8D859BA19cC903cb71F7d36390f694c76821fCE2",
        "92310039",
        "0x"
      ],
      "transaction": {
        "from": "0xc49b5e5b9da66b9126c1a62e9761e6b2147de3e1",
        "to": "0xb26aaa980feadd4e06e51ff435d1ac9617d9facc",
        "gas": "0x97fc3",
        "value": "0x0",
        "input": "0xa502bfbd0000000000000000000000008d859ba19cc903cb71f7d36390f694c76821fce20000000000000000000000000000000000000000000000000000000005808a1700000000000000000000000000000000000000000000000000000000000000600000000000000000000000000000000000000000000000000000000000000000",
        "nonce": "0x6e",
        "chainId": "0x1"
      },
      "additionalContracts": [],
      "isFixedGasLimit": false
    }
  ],
  "receipts": [
    {
      "status": "0x1",
      "cumulativeGasUsed": "0xdd5dae",
      "logs": [
        {
          "address": "0xa0b86991c6218b36c1d19d4a2e9eb0ce3606eb48",
          "topics": [
            "0xddf252ad1be2c89b69c2b068fc378daa952ba7f163c4a11628f55a4df523b3ef",
            "0x000000000000000000000000c49b5e5b9da66b9126c1a62e9761e6b2147de3e1",
            "0x000000000000000000000000b26aaa980feadd4e06e51ff435d1ac9617d9facc"
          ],
          "data": "0x0000000000000000000000000000000000000000000000000000000005808a17",
          "blockHash": "0xebb513919cc3b32a7b332502b57d363c68089fdd91d4a26e6aa8d49fbff1360e",
          "blockNumber": "0x13efd24",
          "transactionHash": "0xef0bf3925a16856f55dcc74f5c2dfe29fdaa098f30cc44323ddce8b3c569ba76",
          "transactionIndex": "0x5b",
          "logIndex": "0x17f",
          "removed": false
        }
      ],
      "logsBloom": "0x10008040000000000000000000000000000000000000000000000000000000000000000000000000000000000000000000000000000000000000000000000002000000000000000008000008000000000000000000080000000000000000000000000000000000000000000000000000000000000000000000000010000000000000000000000000000008000000000000000000010000000000000000000000000000000000200000000000000000000000000000000000000000000000000000000002000000000000000000000000000000000000000000000000000000000000000000000000000000000000000000000000000000000000000000000000",
      "type": "0x0",
      "transactionHash": "0xef0bf3925a16856f55dcc74f5c2dfe29fdaa098f30cc44323ddce8b3c569ba76",
      "transactionIndex": "0x5b",
      "blockHash": "0xebb513919cc3b32a7b332502b57d363c68089fdd91d4a26e6aa8d49fbff1360e",
      "blockNumber": "0x13efd24",
      "gasUsed": "0xe074",
      "effectiveGasPrice": "0x1152f49b0",
      "from": "0xc49b5e5b9da66b9126c1a62e9761e6b2147de3e1",
      "to": "0xa0b86991c6218b36c1d19d4a2e9eb0ce3606eb48",
      "contractAddress": null
    },
    {
      "status": "0x1",
      "cumulativeGasUsed": "0xe43e3c",
      "logs": [
        {
          "address": "0xa0b86991c6218b36c1d19d4a2e9eb0ce3606eb48",
          "topics": [
            "0xddf252ad1be2c89b69c2b068fc378daa952ba7f163c4a11628f55a4df523b3ef",
            "0x000000000000000000000000b26aaa980feadd4e06e51ff435d1ac9617d9facc",
            "0x0000000000000000000000008d859ba19cc903cb71f7d36390f694c76821fce2"
          ],
          "data": "0x0000000000000000000000000000000000000000000000000000000005808a17",
          "blockHash": "0xebb513919cc3b32a7b332502b57d363c68089fdd91d4a26e6aa8d49fbff1360e",
          "blockNumber": "0x13efd24",
          "transactionHash": "0xc8df839fe7c759084117adf6a8dae8f2dd7236f43d78f43a09768b38f77c81dc",
          "transactionIndex": "0x5c",
          "logIndex": "0x180",
          "removed": false
        },
        {
          "address": "0xa0b86991c6218b36c1d19d4a2e9eb0ce3606eb48",
          "topics": [
            "0x8c5be1e5ebec7d5bd14f71427d1e84f3dd0314c0f7b2291e5b200ac8c7c3b925",
            "0x0000000000000000000000008d859ba19cc903cb71f7d36390f694c76821fce2",
            "0x000000000000000000000000d63070114470f685b75b74d60eec7c1113d33a3d"
          ],
          "data": "0x0000000000000000000000000000000000000000000000000000000005808a17",
          "blockHash": "0xebb513919cc3b32a7b332502b57d363c68089fdd91d4a26e6aa8d49fbff1360e",
          "blockNumber": "0x13efd24",
          "transactionHash": "0xc8df839fe7c759084117adf6a8dae8f2dd7236f43d78f43a09768b38f77c81dc",
          "transactionIndex": "0x5c",
          "logIndex": "0x181",
          "removed": false
        },
        {
          "address": "0xd63070114470f685b75b74d60eec7c1113d33a3d",
          "topics": [
            "0xddf252ad1be2c89b69c2b068fc378daa952ba7f163c4a11628f55a4df523b3ef",
            "0x0000000000000000000000000000000000000000000000000000000000000000",
            "0x00000000000000000000000038afc3aa2c76b4ca1f8e1daba68e998e1f4782db"
          ],
          "data": "0x0000000000000000000000000000000000000000000000043e596709f26dae25",
          "blockHash": "0xebb513919cc3b32a7b332502b57d363c68089fdd91d4a26e6aa8d49fbff1360e",
          "blockNumber": "0x13efd24",
          "transactionHash": "0xc8df839fe7c759084117adf6a8dae8f2dd7236f43d78f43a09768b38f77c81dc",
          "transactionIndex": "0x5c",
          "logIndex": "0x182",
          "removed": false
        },
        {
          "address": "0xd63070114470f685b75b74d60eec7c1113d33a3d",
          "topics": [
            "0xf66f28b40975dbb933913542c7e6a0f50a1d0f20aa74ea6e0efe65ab616323ec"
          ],
          "data": "0x000000000000000000000000000000000000000000000000000038ab810845ad0000000000000000000000000000000000000000000000043e596709f26dae25",
          "blockHash": "0xebb513919cc3b32a7b332502b57d363c68089fdd91d4a26e6aa8d49fbff1360e",
          "blockNumber": "0x13efd24",
          "transactionHash": "0xc8df839fe7c759084117adf6a8dae8f2dd7236f43d78f43a09768b38f77c81dc",
          "transactionIndex": "0x5c",
          "logIndex": "0x183",
          "removed": false
        },
        {
          "address": "0xa0b86991c6218b36c1d19d4a2e9eb0ce3606eb48",
          "topics": [
            "0xddf252ad1be2c89b69c2b068fc378daa952ba7f163c4a11628f55a4df523b3ef",
            "0x0000000000000000000000008d859ba19cc903cb71f7d36390f694c76821fce2",
            "0x000000000000000000000000d63070114470f685b75b74d60eec7c1113d33a3d"
          ],
          "data": "0x0000000000000000000000000000000000000000000000000000000005808a17",
          "blockHash": "0xebb513919cc3b32a7b332502b57d363c68089fdd91d4a26e6aa8d49fbff1360e",
          "blockNumber": "0x13efd24",
          "transactionHash": "0xc8df839fe7c759084117adf6a8dae8f2dd7236f43d78f43a09768b38f77c81dc",
          "transactionIndex": "0x5c",
          "logIndex": "0x184",
          "removed": false
        },
        {
          "address": "0xd63070114470f685b75b74d60eec7c1113d33a3d",
          "topics": [
            "0xddf252ad1be2c89b69c2b068fc378daa952ba7f163c4a11628f55a4df523b3ef",
            "0x0000000000000000000000000000000000000000000000000000000000000000",
            "0x0000000000000000000000008d859ba19cc903cb71f7d36390f694c76821fce2"
          ],
          "data": "0x000000000000000000000000000000000000000000000004ea71413b61c214b9",
          "blockHash": "0xebb513919cc3b32a7b332502b57d363c68089fdd91d4a26e6aa8d49fbff1360e",
          "blockNumber": "0x13efd24",
          "transactionHash": "0xc8df839fe7c759084117adf6a8dae8f2dd7236f43d78f43a09768b38f77c81dc",
          "transactionIndex": "0x5c",
          "logIndex": "0x185",
          "removed": false
        },
        {
          "address": "0xd63070114470f685b75b74d60eec7c1113d33a3d",
          "topics": [
            "0xdcbc1c05240f31ff3ad067ef1ee35ce4997762752e3a095284754544f4c709d7",
            "0x0000000000000000000000008d859ba19cc903cb71f7d36390f694c76821fce2",
            "0x0000000000000000000000008d859ba19cc903cb71f7d36390f694c76821fce2"
          ],
          "data": "0x0000000000000000000000000000000000000000000000000000000005808a17000000000000000000000000000000000000000000000004ea71413b61c214b9",
          "blockHash": "0xebb513919cc3b32a7b332502b57d363c68089fdd91d4a26e6aa8d49fbff1360e",
          "blockNumber": "0x13efd24",
          "transactionHash": "0xc8df839fe7c759084117adf6a8dae8f2dd7236f43d78f43a09768b38f77c81dc",
          "transactionIndex": "0x5c",
          "logIndex": "0x186",
          "removed": false
        },
        {
          "address": "0x870ac11d48b15db9a138cf899d20f13f79ba00bc",
          "topics": [
            "0x7120161a7b3d31251e01294ab351ef15a41b91659a36032e4641bb89b121e321",
            "0xb48bb53f0f2690c71e8813f2dc7ed6fca9ac4b0ace3faa37b4a8e5ece38fa1a2"
          ],
          "data": "0x000000000000000000000000000000000000000000000000000000009d21fd2700000000000000000000000000000000000000000000000000000000a7133761",
          "blockHash": "0xebb513919cc3b32a7b332502b57d363c68089fdd91d4a26e6aa8d49fbff1360e",
          "blockNumber": "0x13efd24",
          "transactionHash": "0xc8df839fe7c759084117adf6a8dae8f2dd7236f43d78f43a09768b38f77c81dc",
          "transactionIndex": "0x5c",
          "logIndex": "0x187",
          "removed": false
        },
        {
          "address": "0xbbbbbbbbbb9cc5e90e3b3af64bdaf62c37eeffcb",
          "topics": [
            "0x9d9bd501d0657d7dfe415f779a620a62b78bc508ddc0891fbbd8b7ac0f8fce87",
            "0xb48bb53f0f2690c71e8813f2dc7ed6fca9ac4b0ace3faa37b4a8e5ece38fa1a2"
          ],
          "data": "0x000000000000000000000000000000000000000000000000000000009d21fd27000000000000000000000000000000000000000000000000000000000dd720740000000000000000000000000000000000000000000000000000000000000000",
          "blockHash": "0xebb513919cc3b32a7b332502b57d363c68089fdd91d4a26e6aa8d49fbff1360e",
          "blockNumber": "0x13efd24",
          "transactionHash": "0xc8df839fe7c759084117adf6a8dae8f2dd7236f43d78f43a09768b38f77c81dc",
          "transactionIndex": "0x5c",
          "logIndex": "0x188",
          "removed": false
        },
        {
          "address": "0xbbbbbbbbbb9cc5e90e3b3af64bdaf62c37eeffcb",
          "topics": [
            "0xedf8870433c83823eb071d3df1caa8d008f12f6440918c20d75a3602cda30fe0",
            "0xb48bb53f0f2690c71e8813f2dc7ed6fca9ac4b0ace3faa37b4a8e5ece38fa1a2",
            "0x000000000000000000000000d63070114470f685b75b74d60eec7c1113d33a3d",
            "0x000000000000000000000000d63070114470f685b75b74d60eec7c1113d33a3d"
          ],
          "data": "0x0000000000000000000000000000000000000000000000000000000005808a170000000000000000000000000000000000000000000000000000524ced43c749",
          "blockHash": "0xebb513919cc3b32a7b332502b57d363c68089fdd91d4a26e6aa8d49fbff1360e",
          "blockNumber": "0x13efd24",
          "transactionHash": "0xc8df839fe7c759084117adf6a8dae8f2dd7236f43d78f43a09768b38f77c81dc",
          "transactionIndex": "0x5c",
          "logIndex": "0x189",
          "removed": false
        },
        {
          "address": "0xa0b86991c6218b36c1d19d4a2e9eb0ce3606eb48",
          "topics": [
            "0xddf252ad1be2c89b69c2b068fc378daa952ba7f163c4a11628f55a4df523b3ef",
            "0x000000000000000000000000d63070114470f685b75b74d60eec7c1113d33a3d",
            "0x000000000000000000000000bbbbbbbbbb9cc5e90e3b3af64bdaf62c37eeffcb"
          ],
          "data": "0x0000000000000000000000000000000000000000000000000000000005808a17",
          "blockHash": "0xebb513919cc3b32a7b332502b57d363c68089fdd91d4a26e6aa8d49fbff1360e",
          "blockNumber": "0x13efd24",
          "transactionHash": "0xc8df839fe7c759084117adf6a8dae8f2dd7236f43d78f43a09768b38f77c81dc",
          "transactionIndex": "0x5c",
          "logIndex": "0x18a",
          "removed": false
        },
        {
          "address": "0xd63070114470f685b75b74d60eec7c1113d33a3d",
          "topics": [
            "0x15c027cc4fd826d986cad358803439f7326d3aa4ed969ff90dbee4bc150f68e9"
          ],
          "data": "0x000000000000000000000000000000000000000000000000000038ab8688cfc4",
          "blockHash": "0xebb513919cc3b32a7b332502b57d363c68089fdd91d4a26e6aa8d49fbff1360e",
          "blockNumber": "0x13efd24",
          "transactionHash": "0xc8df839fe7c759084117adf6a8dae8f2dd7236f43d78f43a09768b38f77c81dc",
          "transactionIndex": "0x5c",
          "logIndex": "0x18b",
          "removed": false
        },
        {
          "address": "0x8d859ba19cc903cb71f7d36390f694c76821fce2",
          "topics": [
            "0x6562511fab96c9d61fcca699b812b2d8084548a3ccc34b9e7ba471c913c5b48b"
          ],
          "data": "0x0000000000000000000000000000000000000000000000000000000005808a17",
          "blockHash": "0xebb513919cc3b32a7b332502b57d363c68089fdd91d4a26e6aa8d49fbff1360e",
          "blockNumber": "0x13efd24",
          "transactionHash": "0xc8df839fe7c759084117adf6a8dae8f2dd7236f43d78f43a09768b38f77c81dc",
          "transactionIndex": "0x5c",
          "logIndex": "0x18c",
          "removed": false
        },
        {
          "address": "0xb26aaa980feadd4e06e51ff435d1ac9617d9facc",
          "topics": [
            "0xad74235a8caeca33a6612cb543004e88ca3a8177f115e3d3269fa1353397258e"
          ],
          "data": "0x0000000000000000000000008d859ba19cc903cb71f7d36390f694c76821fce20000000000000000000000000000000000000000000000000000000005808a17",
          "blockHash": "0xebb513919cc3b32a7b332502b57d363c68089fdd91d4a26e6aa8d49fbff1360e",
          "blockNumber": "0x13efd24",
          "transactionHash": "0xc8df839fe7c759084117adf6a8dae8f2dd7236f43d78f43a09768b38f77c81dc",
          "transactionIndex": "0x5c",
          "logIndex": "0x18d",
          "removed": false
        }
      ],
      "logsBloom": "0x30000040000000000000000000000080000000000000000000000000000000000000400000000000000000000000020000000000000000100000000020a4c002200000400010100008000008a00010000000004800280000000000080000002000001000020000000000000000000801000000000004000400000010000000000008000000000008000000000000000000000000010080004020000000000400220000000020200000000000000000000000100004008000000000000000000021000002000000000001000000000000000000000008000000000000000020400010000011000000000020200021000001000000000000800000000040000000",
      "type": "0x0",
      "transactionHash": "0xc8df839fe7c759084117adf6a8dae8f2dd7236f43d78f43a09768b38f77c81dc",
      "transactionIndex": "0x5c",
      "blockHash": "0xebb513919cc3b32a7b332502b57d363c68089fdd91d4a26e6aa8d49fbff1360e",
      "blockNumber": "0x13efd24",
      "gasUsed": "0x6e08e",
      "effectiveGasPrice": "0x1152f49b0",
      "from": "0xc49b5e5b9da66b9126c1a62e9761e6b2147de3e1",
      "to": "0xb26aaa980feadd4e06e51ff435d1ac9617d9facc",
      "contractAddress": null
    }
  ],
  "libraries": [],
  "pending": [],
  "returns": {},
  "timestamp": 1728202507,
  "chain": 1,
  "commit": "7fc8498"
}